:020000041000EA
:1000000000B5324B212058609868022188439860DF
:10001000D860186158612E4B002199600221596106
:100020000121F02299502B49196001219960352056
:1000300000F044F80222904214D00621196600F024
:1000400034F8196E01211966002018661A6600F04E
:100050002CF8196E196E196E052000F02FF8012189
:100060000842F9D1002199601B49196000215960AB
:100070001A491B48016001219960EB211966A021F2
:10008000196600F012F800219960164914480160C1
:100090000121996001BC002800D000471248134993
:1000A000086003C880F30888084703B5996A0420EC
:1000B0000142FBD001200142F8D103BD02B5186610
:1000C0001866FFF7F2FF186E186E02BD00000240BE
:1000D000000000180000070000035F00212200005C
:1000E000F4000018222000A00001001008ED00E03C
:1000F00000000000000000000000000074B24E7A12
:1001000000200420F7010010C3010010C5010010F9
:10011000C1010010C1010010C1010010C101001097
:10012000C1010010C1010010C1010010C701001081
:10013000C1010010C1010010C9010010CB01001065
:10014000CD010010CD010010CD010010CD01001037
:10015000CD010010CD010010CD010010CD01001027
:10016000CD010010CD010010CD010010CD01001017
:10017000CD010010CD010010CD010010CD01001007
:10018000CD010010CD010010CD010010CD010010F7
:10019000CD010010CD010010CD010010CD010010E7
:1001A000CD010010CD010010CD010010CD010010D7
:1001B000CD010010CD010010CD010010CD010010C7
:1001C00000BE00BE00BE00BE00BE00BEEFF3058054
:1001D000103800BEF2EB8871E82E0510082F0510CC
:1001E0003402001090A31AE700201F49086006C8D7
:1001F00081F3088810471D48006800282FD10DA4FE
:100200000ECC002902D000F012F8F9E71849194A7B
:10021000002000E001C19142FCD1174988471749ED
:1002200088471749884700BEFDE701C901C29A42C5
:10023000FBD37047082F0510C0000020D81A0020FB
:10024000204905100000042000000420204905106A
:10025000001004200010042000000000704709482E
:1002600001F084F90047000008ED00E0000000D034
:10027000F81A002090E20020C5410110CD040010C2
:10028000ED4201105756000006005250ABB36053C8
:10029000B02C051006005250861C0302C02C05101D
:1002A000060052505422A29DC82C05100500525041
:1002B000DE65F46820490510F8B5C0460448054BD2
:1002C00010B5834203D0044B002B00D0984710BDDB
:1002D000D81A0020D81A002000000000064807495C
:1002E000091A8B10C90FC91810B5491003D0044B57
:1002F000002B00D0984710BDD81A0020D81A002033
:100300000000000010B5074C2378002B09D1FFF73F
:10031000D5FF054B002B02D0044800E000BF0123AD
:10032000237010BD581D002000000000989201109D
:10033000054B10B5002B03D00449054800E000BF71
:10034000FFF7CCFF10BDC046000000005C1D002080
:1003500098920110F0B5C64600B58CB006AD2A00E3
:10036000464B13CB13C203CB03C21B7801AC1370F3
:100370002200434B43CB43C2196811601B791371B0
:1003800018F0E0F902223F4B1A603F4B1A688023B5
:10039000DB015340E022D20113403C4A13600EF0CF
:1003A00025FF002862D13A4816F0B4F80EF0B2FEEC
:1003B000384E08E0300016F0ADF80EF057FF0EF0A2
:1003C00015FF0EF0A7FE21002800334B334A0EF034
:1003D000AFFE0028EED1324816F09CF800F0A8FAE3
:1003E000042398462F4F304E304D264C43468021F3
:1003F000254A2360490013680B42FCD05068000472
:10040000000C15F06BFE2A4915F061FE15F088FE10
:10041000284A294B15F0DFFC284A294B15F0E5FC4A
:1004200002000B000020274915F0D5FC15F0A8FDAF
:1004300015F076FE02000B00380016F00DF90121D0
:1004400000200EF0C3FE300016F064F8FA208000A1
:1004500002F018FA002100200EF0B8FE280016F075
:1004600059F8FA20800002F00DFABFE7164816F09E
:10047000F3F80CB080BCB846F0BDC0462493011020
:100480003C93011000E0044000C0044000D0044050
:10049000AC920110C092011010270000040040002F
:1004A000D4920110E89201101093011018930110DA
:1004B0003333533A643BDF4F8D97E63F7FC2D9AD6C
:1004C00065325C3F00003B409892011010B516F079
:1004D000CFF8FFF73FFF002010BDC04670B5050004
:1004E00011000948140016F0B7F82B6A9C466444C2
:1004F0002C62092C01DC002070BD002303486B62D4
:1005000016F008F8F7E7C046509301106493011005
:1005100070B504004068002500281AD0002104F0BE
:10052000E7FE00220021606804F018FF00216068E7
:1005300004F0F0FE0021606804F0DEFE0021606837
:1005400004F0F6FE606805F0F9FB051E0ED10023ED
:1005500063602068002807D0002104F0C9FE2068ED
:1005600005F0ECFB00232360280070BD0D25010081
:10057000034816F071F8606805F046F86D42E6E74A
:10058000849301100B0070B505000C000D3300D1F1
:1005900070BD094816F060F8002C08D1074815F026
:1005A000B9FF012328002B72FFF7B2FFF0E721000B
:1005B000034816F051F8F4E7A4930110BC9301101E
:1005C000CC930110F0B54646D6464F4680460C0007
:1005D0001500C0B5002A55D1002963D0354815F063
:1005E00099FF434620005C60414604F081FE2000F4
:1005F000314904F08FFE2000304904F07DFE2000D8
:100600000A222F4904F0AAFE20002E4904F090FE91
:1006100043465B6847469A460923434499461C0073
:10062000FF25294E133718F0BFFB01002070294029
:100630003000013416F010F8A742F4D100234246EE
:100640000A211362214816F007F801230A224946BD
:10065000504607F0B3FB002804D1E0BCBA46B146CF
:10066000A846F0BD01001A4815F0F6FF012119480F
:10067000494215F0F1FF0123424640461372FFF74D
:1006800047FFEAE7144815F045FF2900114815F027
:10069000E3FF0123424640461372FFF739FF06206D
:1006A0004042DAE70C4815F035FF0C4815F032FFF0
:1006B000EFE7C046F0930110DD0400107107001051
:1006C000E1060010850500106093011004940110EC
:1006D00024940110CC930110DC930110BC93011001
:1006E00070B504001F4815F015FF01211E4849424E
:1006F00015F0B2FF012360680025237200281AD08C
:10070000002104F0F5FD00220021606804F026FEBF
:100710000021606804F0FEFD0021606804F0ECFD3B
:100720000021606804F004FE606805F007FB051E08
:100730000ED1002363602068002807D0002104F058
:10074000D7FD206805F0FAFA00232360280070BD69
:100750000D250100054815F07FFF606804F054FF87
:100760006D42E6E740940110CC9301108493011090
:10077000F0B54646D6464F460400C0B515000E00FB
:10078000002A4BD01189002928D1280003F05AFEF5
:10079000636A0A2B05D00020E0BCBA46B146A846E1
:1007A000F0BD0923260099461336A1440A223100E0
:1007B000484618F0F1FC00282DD1314815F0AAFE6A
:1007C000A36A0133A362002B35DD2E4815F0A2FE8B
:1007D000012320002372FFF79BFEDCE7426A2A48D0
:1007E00015F03AFF0A23606A29891B1A9FB20A1C76
:1007F000B9421ED82100133109180023280092B2F3
:1008000003F044FF636A9C466044606229893000BB
:1008100004F074FAB9E71D4815F07CFE01211C486C
:10082000494215F019FF012320002372FFF770FEE3
:10083000B2E71A1CDEE763684D469A46154BFF2760
:10084000984618F0B1FA0100287039404046013549
:1008500015F002FFAE42F4D100230A2123620E48B4
:1008600015F0FAFE01230A224946504607F0A6FA7F
:10087000002800D18FE70100084815F0EDFECDE714
:1008800084940110BC9301105494011074940110CD
:10089000CC93011060930110049401102494011072
:1008A0001C4B70B50500186804300EF0B5FA1A4AF2
:1008B00001001A4815F0D0FE2E2004F0A1FF041EFE
:1008C00023D00021144A04F021F900280FD101217E
:1008D000200004F097F9286000280ED0290004F0C9
:1008E00007FD28680E4904F031FD012070BD0A495A
:1008F0000C4815F0B1FE0020F8E70B4815F00AFE91
:10090000200005F01BFA0020F0E7084815F002FE71
:100910000020EBE7F4D0002092100000CC940110EE
:10092000C50500100895011024950110F0940110E0
:1009300010B52C21012015F04BFC041E16D00D48DB
:1009400015F0E8FD2000FFF7ABFF002803D02000E2
:1009500015F05EFC10BD01210748494215F07CFEF0
:10096000012320002372FFF7D3FDF3E7034815F0BE
:10097000D1FDEFE7BC940110CC930110A0940110BD
:1009800010B508F0C7FC10BD0123F0B50B7283B0A1
:10099000040008F0F3FC0500431C0DD11249134B71
:1009A0001A685B68009201938A60CB60236820001C
:1009B0005B69984703B0F0BD02F06AF8FA220600BE
:1009C0000F00002328000021920015F049FB361883
:1009D0004F41002F03DB04498E60CF60E6E701261C
:1009E000034F7642F7E7C04648110020709501108A
:1009F000FFFFFF7F70B5094D04002B78002B08D056
:100A00000123074920000B722368DB699847012006
:100A100070BD02F00FFC01232B70F1E77EE2002095
:100A20003811002010B50400036804499B699847F9
:100A3000236820001B6A0249984710BD4811002016
:100A400038110020002070477047C04610B502F0F2
:100A50001FF8002905D0FA220023920014F0BEFFEF
:100A600010BDFA21890014F07BFFF9E702008368CA
:100A70000832002B04D107E01A001B68002B03D0BA
:100A80009942F9D1002003E00023012011600B609E
:100A90007047C0468368002B08D0994202D107E016
:100AA000994207D01A001B68002BF9D1002070472B
:100AB000020008320B6801201360F8E74368021D4A
:100AC000002B04D107E01A001B68002B03D09942C9
:100AD000F9D1002003E00023012011600B60704772
:100AE0004368002B08D0994202D107E0994206D012
:100AF0001A001B68002BF9D100207047021D0B68FB
:100B000001201360F9E7C046F8B54746CE46836832
:100B1000804680B5002B29D008234344994601F034
:100B2000B7FF43469E6804000D00002E58D00023F6
:100B30004F469C46B268F36820002900801A99410C
:100B4000002902DB14001D00BC4637003668002E69
:100B5000F0D16346002B43D0196840460A681A60FA
:100B60004B68984743469B68002BD8D143465C6846
:100B7000002C31D00025237A002B29D02100636876
:100B80002572404698472468002CF4D1174B18680A
:100B9000596843469E68002E04D112E020002900C7
:100BA000002E0ED0330002009C68DD680B00121B83
:100BB000AB413668002BF1DCF2D1002AEED1002ED9
:100BC000F0D1434618615961C0BCB946B046F8BD82
:100BD0002468002CCFD1D9E7044B18685968F0E796
:100BE00043465C68002CC5D1D0E7C0467095011023
:100BF000F0B5C646804600B501F04AFF43469B6803
:100C000006000F00002B0AD09968DA6834003D0016
:100C1000641A9541002D10DA1B68002BF4D143466D
:100C20005B68002B03D10AE01B68002B02D0187A06
:100C30000028F9D080BCB846F0BD0120FAE70020BA
:100C4000F8E7C046024B18688007C00F7047C046DF
:100C500000C00640104A114B10B512184B419900C4
:100C6000900F0843990F504059400D4A0D4B15F015
:100C7000F7F903004A01C00E1043CA0E5840514014
:100C8000094B0A4A15F0ECF903004A00C00F104363
:100C9000CA0F5840514010BD157C4A7FB979379E24
:100CA000B9E5E41C6D4758BFBB49D094EB11311333
:100CB000F0B504684568060023002A00C64680682F
:100CC000F16803430A4300B5134304D101F0E0FE89
:100CD00003000B43FAD02A06230A60402706134379
:100CE0002A0A3A43070CBC4669404B409846634683
:100CF0000F041F43424003045A4043467B40326086
:100D00007360C20E4B011343C90E40010843B36028
:100D1000A10FAB000B43A200A4185D41EB01620ED2
:100D20001A43E4016B0E2343F0601E0017005B0FB3
:100D3000D100F00019438019794180BCB846F0BD5C
:100D4000F0B5DE4657464E464546E0B5B84B8DB049
:100D50001B78002B00D1ECE008AB9846B54BB64CA5
:100D60000393B64BB64F049310220499404615F0F6
:100D70006DFAB44B1B78DBB2059301F089FEFFF7E7
:100D800069FF089B584043465B68089059404346BA
:100D90005960AD4B9B69DB0400D5C0E013F0C2FA8B
:100DA000EFF305839B46B9465F46A84B2568666806
:100DB0009A4628003100002F1AD001F073FEEFF39D
:100DC000108272B653461B68002BFBD0BFF35F8FB7
:100DD0002368AB420FD0BFF35F8F002153461960E9
:100DE00082F310882568666828003100002FE4D15E
:100DF00001F0E6FCE3E76368B342ECD10125924BD6
:100E00001600D8694F46054001F042FE0A22002331
:100E100080185941002900DA7DE03A687B68921811
:100E20005B412060616028001C00130010430093A8
:100E3000019438607C60BFF35F8F0024834A1460A4
:100E400086F310880199FFF705FF43469B68804AA7
:100E500058404346DB689446594043469860D96001
:100E6000039B7C4A1B78DB006344986890425ED009
:100E70000021FFF7EFFE089B584043465B6808904F
:100E8000594043465960EFF3108572B66F4A1368B4
:100E9000002BFCD0BFF35F8F6A4B059A1B789342FF
:100EA00019D0049940460B6840681A00089B5A40C4
:100EB000089242464B68434053608B680093434618
:100EC000009A9B685A40CB684146C96800934B40E2
:100ED00041468A60CB604046FFF7EAFE10220600DA
:100EE0000C000498414615F0B1F9564B554A1B7851
:100EF0000133DBB21370BFF35F8F0022534B1A60D4
:100F000085F31088300021000DB0F0BCBB46B2461E
:100F1000A946A046F0BD01204F4940427DE74F4B16
:100F2000DA6BE0231340402B00D039E736E79C60B2
:100F30009EE74B4B9946186859684A4B9C464A4B6A
:100F40009846830E8F011F438601030C0D041D4339
:100F500032003B00040412196B41121A8B416146A6
:100F600001C98C46002100900191009801998018D8
:100F70005941C445E5D14B4618605960FFF76AFEF8
:100F800008AB9846089B584043465B680890594018
:100F9000434606A8596000F021F906980799FFF723
:100FA00059FE43469B6858404346DB6859404346D8
:100FB0009860D960244B9B69DB0436D5274BDA6BEC
:100FC000E0231340402B30D0EFF305839A464023B3
:100FD0000024039300231D4F00930194164C00231B
:100FE0009B4653462568666828003100002B19D0BF
:100FF00001F058FDEFF3108972B63B68002BFCD06E
:10100000BFF35F8F2368AB4230D0BFF35F8F5B4687
:101010003B6089F3108853462568666828003100D4
:10102000002BE5D101F0CCFBE4E713F07BF9CBE733
:1010300088E2002079E20020501C0020E01A002005
:10104000F01A00207AE2002000000640300100D0B3
:1010500000000340FFFFFF00FFFFFF7F0080004014
:10106000D81A0020001C0420002004206368B3422A
:10107000CBD1009A019B1000190080185941484BB0
:10108000DA690123134003430093019101F000FD4D
:101090000A22002380185941002949DB039B206064
:1010A0006160012B3AD1009801993E4F3860796018
:1010B000BFF35F8F00233C4D2B6089F31088FFF74F
:1010C000C9FD089B584043465B6808905940434619
:1010D000596001F0DDFCFFF7BDFD43469B685840B9
:1010E0004346DB68594043469860D960EFF3108669
:1010F00072B62B68002BFCD0BFF35F8F2B4B1B7895
:10110000002B19D02A4B03932A4B0493BFF35F8F14
:101110000022254B1A6086F3108825E6BFF35F8F07
:1011200000233B6089F31088039B013B039356E740
:10113000012021494042B1E7204BDA681F2A23D021
:101140005A691F2A22D0DA691F2A25D05B6A1F2B11
:101150001FD013F0E7F8FF22FF231549DB000A70C8
:10116000174A03919446052263445A604046FFF7AC
:101170009FFD104B102218004146049315F066F8AD
:1011800001230A4A1370C1E700230393039BDAB2D9
:10119000E3E71C3B0393F9E702230393F6E7C0461A
:1011A00000000640F01A0020300100D088E2002044
:1011B00079E20020E01A0020FFFFFF7F00000340DB
:1011C0000800034010B5FFF7BBFD10BD10B5024885
:1011D00000F0E0F810BDC046E8E0002010B508229D
:1011E000014915F033F810BDE8E0002030B54B1E82
:1011F000012900D1A7E0664A11780D112C00303486
:101200009F2900D9A2E00470012B00D1BEE00F217C
:10121000147821400C003034092900DD98E0447036
:10122000022B00D1B2E054782511290030319F2CD7
:1012300000D990E08170032B00D1A7E00F2121405D
:101240000C003034092900DD87E0C470042B00D184
:101250009CE094782511290030319F2C00D97FE043
:101260000171052B00D191E00F2121400C00303499
:10127000092900DD76E04471062B00D186E0D478A0
:101280002511290030319F2C00D96EE08171072B88
:1012900000D17BE00F2121400C003034092966DCAD
:1012A000C471082B00D171E0147925112900303167
:1012B0009F2C5FD80172092B68D00F2121400C00B0
:1012C0003034092958DC44720A2B5FD05479251137
:1012D000290030319F2C52D881720B2B56D00F2110
:1012E00021400C00303409294BDCC4720C2B4DD04A
:1012F00094792511290030319F2C00D907310173D1
:101300000D2B43D00F2121400C003034092901DD81
:1013100037310C0044730E2B38D0D1790C112200D8
:1013200030329F2900D9073282730F2B2ED00F2223
:101330000A4011003731092A01DC30321100C17333
:10134000102B23D010300023037030BD07345AE730
:1013500037310C0063E707316CE737310C0074E775
:1013600007317DE737310C0085E707318EE73731EC
:101370000C0095E707319DE737310C00A3E70731F3
:10138000AAE737310C00C4720C2BB1D1C018DAE7D0
:10139000E8E0002030B5002589B0040009220021D2
:1013A00001A8009514F04CFF0922002105A804951E
:1013B00014F046FF4B236A466846137004A90D22B9
:1013C00017F0D2FE152108222000694414F03EFFD8
:1013D00009B030BDEFF3108072B6034A1368002BDA
:1013E000FCD0BFF35F8F70472C0100D0BFF35F8F3D
:1013F0000022024B1A6080F3108870472C0100D045
:1014000070B5EFF3108C72B60D4D2B68002BFCD02D
:10141000BFF35F8F0724CB08C618C05C01230C40C4
:10142000A3401C000440034207D103433370BFF3C1
:101430005F8F2C608CF3108870BD100012F05AFF83
:101440002C0100D0F8B54746CE46884680B5EFF36C
:10145000108C72B6214D2C68002CFCD0BFF35F8F2E
:101460009A422CD8D4080727055D06190124174095
:10147000BC402C421FD007210127894609E0D4082F
:10148000055D06194C4639001440A1400C00294264
:1014900011D001329342F2D201204042BFF35F8F5C
:1014A00000220E4B1A608CF3108800280FDBC0BCA2
:1014B000B946B046F8BD2C4310003470EEE7BFF3D8
:1014C0005F8F00232B608CF310880120404243463D
:1014D000002BECD0089812F00DFFC0462C0100D074
:1014E00030B5EFF3108C72B60A4C2368002BFCD099
:1014F000BFF35F8F07230122CD0819408A40435D67
:1015000093434355BFF35F8F002323608CF3108810
:1015100030BDC0462C0100D00021044B044ABFF36B
:101520005F8F02C39342FAD17047C046000100D0DA
:10153000800100D0044A1078431CDBB2172B00D97D
:10154000102313707047C0466011002000B5054B92
:1015500083B00100009318221F230348FFF772FF96
:1015600003B000BD389501102C240020142310B5C1
:101570000100188804331B88984710BD162310B546
:101580000100188802331B88984710BDF8B54746FC
:10159000CE4680B50F1E19D014239946043304009B
:1015A0000025012698464B461888434621681B882B
:1015B000984701C4431E9841013540420640AF425E
:1015C000F1D13000C0BCB946B046F8BD0126F8E7FD
:1015D00030B50C2083B001F0C5FDFFF733FB0028C8
:1015E0000ED0994B994A1A605A609A60DA601A6173
:1015F0005A619A61DA611A62954A5A6203B030BD43
:10160000944CA06701F002FE0122934B1A60636CB8
:10161000012BFCD10322914B1A608E4A936B012B54
:10162000FCD1013301218E4A8E480093043301F02E
:1016300049FD05238C4A009301218C4801F042FDAD
:101640008B4B5A68FF2A02D8802252005A608022AF
:101650007D4C824B21691201854D1A60002907D00B
:10166000606914F07DF9431C5800C0180338FDD29E
:10167000E0217F4B02201A681140802252012A4348
:1016800011601968484003210140116004219A68E3
:101690001142FCD08022802192012A43090111606D
:1016A000802252005A60734B2361734B5968FF29A3
:1016B00000D85A600321684A6F4B116002399A685A
:1016C0001142FCD0E0201A681040802252011A43D7
:1016D00010601868484003210140022011606649EB
:1016E0008A681042FCD080229201134380221201AA
:1016F0001A608022614B52004A606361604B5968F6
:10170000FF2900D85A6080225E4BE16912015C4DCE
:101710001A60002907D0606914F022F9431C5800B0
:10172000C0180338FDD2E02255490B681A408023C7
:101730005B012B431A60802380229B012B43120103
:101740001A608022414B52004A60E3614E4B596857
:10175000FF2900D85A6080224C4B216A12014A4D61
:101760001A60002907D0606914F0FAF8431C580089
:10177000C0180338FDD2E02243490B681A40802389
:101780005B012B431A60802380229B012B431201B3
:101790001A60802380225B004B602C4BD2022362B4
:1017A0003B4B5968914200D25A608022394B616AA2
:1017B0001201374D1A60002907D0606914F0D0F883
:1017C000431C5800C0180338FDD2E02230490B6892
:1017D0001A4080235B012B431A60802380229B01E7
:1017E0002B4312011A608023DB024B60184B6362AB
:1017F000294B5A68FF2A02D8802252005A60802260
:10180000264BA1691201244D1A60002907D0606996
:1018100014F0A6F8431C5800C0180338FDD2E0228B
:101820001D490B681A4080235B012B431A608023FB
:1018300080229B012B4312011A6080235B004B60C6
:101840000E4BA361DAE6C04630240020006CDC02B7
:101850001BB70000008000403CB0004030B00040AA
:10186000002F685900800240008C864700C002406B
:1018700030800040001BB7003C8000404059730797
:101880005480004054B000406080004060B0004090
:101890006C8000406CB000404880004048B0004080
:1018A000014B8000C058704730240020094A830053
:1018B00094464022634410B51C68C0006240C024B6
:1018C00014408022520113431C60034B9C46604429
:1018D000416010BD04C00140004001400A4B80003F
:1018E0009C4604236044002901D00C230821002ACF
:1018F00000D10B00026853400C221A4080235B0188
:10190000184302607047C04604C00140084B800085
:101910009C466044002905D080239B011843022384
:1019200003607047C0239B01184302230360F8E75C
:1019300004C00140D0231B061B6830B50500581EAB
:1019400083410F485C4284460720302328402340CF
:101950008000EC08814020000A4D3C306344800048
:10196000A40041511B19002A04D080229201134384
:10197000196030BDC022920113431960F9E7C046D7
:101980000041014000400140D023F0B5C6460400AC
:101990001B0698461B680C4F9B00F8580D0016005C
:1019A00000B5044209D1044332002900FC500D2047
:1019B00000F09CF880BCB846F0BD12F0B3FC434682
:1019C0001B689B00F858EEE7D4E0002010B5040037
:1019D0000D2000F07FF9D0231B061B6802499B00F5
:1019E0005A58A2435A5010BDD4E000200123D022FF
:1019F0008340120693629361094A83009446402211
:101A000063441968C0004A40C0211140802252013D
:101A100013431960034B9C460523604443607047A1
:101A200004C001400040014001238340002904D04C
:101A3000034A1360034A13607047034A1360FBE7CD
:101A400080E200E000E100E080E100E0012383406B
:101A5000014A13607047C04600E200E0084B1030B6
:101A60009B688000C358002B07D0064A00209B1AB1
:101A70002F229A424041C0B270470020FCE7C04686
:101A800000ED00E064110020024B10309B688000E4
:101A9000C058704700ED00E070B50D00EFF3108600
:101AA00072B60F4A1368002BFCD0BFF35F8F0D4B4B
:101AB00010309B6884001B590B4A934203D09D420F
:101AC00001D012F02FFC074B9B681D51BFF35F8FB5
:101AD000BFF35F8F0022024B1A6086F3108870BD3F
:101AE000240100D000ED00E0CD010010F0B5574614
:101AF0004E46DE464546E0B585B006000291170029
:101B0000EFF3108B72B6674A1368002BFCD0BFF35B
:101B10005F8F0025644B5D579A46002D00DAA4E0E4
:101B20006B00624C03935B199B009846A146C1442D
:101B30004B4652469B79103613705D4BB2009B6842
:101B4000019299580B1B2F2B34D95A4B994200D034
:101B5000A4E0039B584A9C46584B6544AD00635330
:101B6000434602336519E418554B0121043B1B1B06
:101B70001B055B0D13436B80524BEF71AB80FF2352
:101B8000AB71029BAB604B460B431900484B019A6B
:101B90009B689950BFF35F8FBFF35F8F0022414B6B
:101BA0001A608BF3108805B0F0BCBB46B246A9465C
:101BB000A046F0BD01200A008243D379BB422FD852
:101BC00045464E46130040491B1B5B415943090DD6
:101BD0003A4B63533A4B02356519043B5B1B1B05BB
:101BE000354D5B0D2B4373800426B446E0444444DA
:101BF000131F1B1B4C46A17102991B05A16049468E
:101C00005B0D2B43A380314BE77101431360BDE7AC
:101C10005800C01880002018C679BE422BD9020097
:101C20000623D356002BF3DA101D8246284880463F
:101C300004267642B446E14450464E46361A3005F4
:101C4000400D824656461C48957106439680039A7D
:101C5000944665441D4AAD00641922604246A37152
:101C6000029BA280E771A36090E712F05BFB002566
:101C700053465D5754E7101D824690884005001575
:101C800084464046D444664604302018301AE02684
:101C90000005400D360230438046C9E712F042FB92
:101CA00057E7C046240100D081E2002064110020E3
:101CB00000ED00E0CD01001000E0FFFF00A1FFFFFC
:101CC0009411002001BDFFFFAAAA0000014880472F
:101CD00001BD0000F0B5DE4657464E464546E0B52C
:101CE0000C0083B0EFF3108972B6584A1368002BCA
:101CF000FCD0BFF35F8F564B9A68030010339F00F0
:101D0000D559544A9046954232D0A54243D0524EBE
:101D1000AA1B2F2A2CD801228240924651464F4AB4
:101D200012681140019151464D4A1160BFF35F8F17
:101D3000EFF305829346002A33D101232A009A4308
:101D400093689C4208D177E04B005B189B00F31826
:101D50009968A1422AD01A00062151560029F3DAC7
:101D6000019B002B19D052463E4B1A603B4B1A6028
:101D7000374B9B68DD51BFF35F8FBFF35F8F00224E
:101D8000324B1A6089F3108803B0F0BCBB46B246F0
:101D9000A946A046F0BD1500EAE75246304B1A604E
:101DA000E6E79342C9D012F0BDFAC6E706215956BC
:101DB000002921DB4A005018800034188046A068B2
:101DC0009860E079D871062020569871002824DBAD
:101DD000A488F01A6405241544440019E024000581
:101DE000400D24022043988052181F4B9200B618D1
:101DF0001A781970B271B3E7594600290FD1FF3133
:101E000091711A49918018490A789A71184A9B1B56
:101E10005B415A43120D0A70A2E71648E3E7164ADF
:101E20001649D21A083A5002400D014399801449CC
:101E300052080A43DA8093E706215156130000291D
:101E4000B8DA5A46002AEAD14546DCE7240100D038
:101E500000ED00E0CD0100106411002000E100E081
:101E600080E100E080E200E081E2002001BDFFFFB0
:101E7000AAAA000001BD00009E11002000F0FFFF93
:101E800000F8FFFF032310B50400074A18409446EA
:101E9000C0009C43FC3383406444226881409A43E1
:101EA00013000B43236010BD00E400E070B5EFF3B6
:101EB000058101240443EFF3108C72B6214A1368A4
:101EC000002BFCD0BFF35F8F1F4B05001F4AED1A9C
:101ED0006D416A43120D1E4D8900AE6852B27658AC
:101EE000A6421CD00621595691421CD012215956A7
:101EF000914222D01E215956914220D02A21595672
:101F00000324914210D0134B19781A708171BFF3DA
:101F10005F8F00220B4B1A608CF3108870BDAB688A
:101F20000D4C5C50EFE700246100091989005B1833
:101F3000FF21997109499980E5E70124F4E702241A
:101F4000F2E7C046240100D064110020AAAA0000D4
:101F500000ED00E081E20020CD01001001BDFFFF97
:101F6000054B064A1360064A136053609360D360C2
:101F700013615361936170478080808000E400E0CA
:101F800004E400E01F2110B5091A0248FFF7A8FA7F
:101F900010BDC0468DE2002000B5074B83B00100A4
:101FA0000093002205230548FFF74CFA002801DBC7
:101FB0001F23181A03B000BD549501108DE20020B4
:101FC00070B504000E001500FFF7B4FA0100200000
:101FD00000F006F8A680E580BFF35F8F70BDC046B5
:101FE000024B9C4661448900016070474000003408
:101FF00010B50400FFF79EFA01002000FFF7F0FF84
:10200000FF232371BFF35F8F10BDC04610B50400DE
:10201000FFF790FA01002000FFF7E2FFFF23A38003
:10202000BFF35F8F10BDC04610B504000120FFF75D
:102030008DFA044B9C46604480002060BFF35F8FA4
:1020400010BDC04640000034034B9C4661448900EB
:102050000160BFF35F8F70474000003483680B4816
:1020600010B5844661446244090112019A18591856
:1020700054684B6801209C4201D802D00020C0B2B5
:1020800010BD12680B689A42F9D8F7E7FFFFFF0FFF
:102090000A4B1968EFF3108072B60A68002AFCD068
:1020A000BFF35F8F1B68BFF35F8F00221A6080F35E
:1020B000108840BF002000217047C046F8E1002092
:1020C000F8B557464E464546DE46E0B599460CAB58
:1020D0001C780DAB1B78060090469A460768002CCA
:1020E00011D1BC7B002C42D065003B682D19033D0B
:1020F00059194B78BB73002B00D1FB7300238B70F5
:102100004B700B7004E065003B682D19033D5919B5
:10211000B2682A4B94464246E3181B0163441A6096
:102120004A465A600A9A9A600B9ADA6000238B70CA
:102130004B700B707B7B9B46002B2BD022005946AB
:10214000B8687B6898473A68002816D05B465846BE
:102150005B005B445519033BA870D118D35C002B7E
:1021600000D06B705B460C707B73A34513D0F0BC42
:10217000BB46B246A946A046F8BD5B465B005B4441
:10218000033BD3189C705119525D002A00D05A703D
:102190005B460B707C7342464B46307D00F0D8FCAA
:1021A000051E06D05346002B03D12100306800F0F5
:1021B0004BFF0E9B002BDAD01D70D8E7FFFFFF0FFF
:1021C000F0B5DE4657464E4645460023E0B58BB097
:1021D0000893674B8200D45800239B46099000F077
:1021E00057FC626806000F00EFF3108572B61368A3
:1021F000002BFCD0BFF35F8F23689C465B7B994626
:10220000002B00D169E0A2685A4B90464B441B0159
:10221000984443461A685B6810001900801BB94156
:10222000002900DC63E0099800F092FC0023002202
:10223000984600230692079300239A466368BFF3EB
:102240005F8F5A461A6085F310885346002B08D1D9
:102250000028C4D10BB0F0BCBB46B246A946A0468C
:10226000F0BD089B414618024B461843D0476268B0
:1022700006000F00EFF3108572B61368002BFCD038
:10228000BFF35F8F002F50DB33003B4302D0236945
:10229000002B61D12368D97B002907D04A0052184E
:1022A00019688C4649466244033A51709A7B002A69
:1022B00001D14A469A734A46DA734B46E168013BBC
:1022C000CA5C0132CA545B4623616368BFF35F8F07
:1022D0005A461A6085F3108881E700230022984649
:1022E000002306920793002300209A46A6E70029C0
:1022F00002D1002800D096E70021604600F022FEBF
:1023000043461A685B680692079343469B689A4661
:102310004346DB689846E3684B44013B1B780893CF
:102320001B0203432361002088E72369002BB1D0FF
:10233000069A079B921BBB41002B15DB5946049163
:1023400001210391494602914146019151462000E5
:102350000091FFF7B5FEB6E700F09AFB32003B00B4
:1023600012184B41002BE9DA0122034B5242E5E7F8
:1023700008D10020FFFFFF0FFFFFFF7F10B5144CB7
:102380006368002B04D00A211248FFF729FE10BD14
:102390002300114A1021206800F0E4FC032000F023
:1023A00053FB032000F03EFC03200C4900F08AFBA5
:1023B000FFF7C0F80A4B9C4603232375D0231B0666
:1023C0001B6860446375074B80006060DC60DAE77F
:1023D000AC110020F8E100205D200010C1210010A8
:1023E0004000003408D1002000487047AC110020A4
:1023F00070B50500182013F0CDFE16490400020048
:10240000280000F07FFC10212060280013F0E0FE7F
:102410000121A060280013F0DBFEE060012000F045
:1024200027FB050000F0FEFB28000B4900F04AFBEB
:10243000FFF780F8094B25759C46D0231B061B68C7
:1024400060446375064BAD0080006060EC50200076
:1024500070BDC0465D200010C12100104000003456
:1024600008D100200E4B10B50400984217D000216F
:10247000037D0C4A9B009950006800F091FC0021FC
:10248000207D00F01FFB207D00F0EAFAE06813F0E9
:10249000BFFEA06813F0BCFE200013F0B9FE10BD13
:1024A000AC11002008D10020F0B54E464546DE466E
:1024B0005746E0B585B0019310AB1B780600039337
:1024C00000239946984600927268EFF3108B72B61B
:1024D0001368002BFCD0BFF35F8F3568AC7B002CFA
:1024E0003DD067002B683F19033FDB195A78AA7368
:1024F000002A00D1EA73B168474A8C4600980199D6
:10250000A21812016244106051600E9991600F99F7
:10251000D16042469A705A701A706B7B9A46002BB3
:1025200067D022001900A8686B6898472A680028BD
:1025300052D0534650465B005344D719033BB87002
:10254000D118D35C002B00D07B7053460C706B739A
:1025500054454FD0F3681B19013B187800E0002068
:102560007368BFF35F8F42461A608BF31088002CAC
:102570004FD04B46002B08D10002204305B0F0BCE1
:10258000BB46B246A946A046F0BD039B002B3ED0F9
:102590000E9B00200F999847030004000D000B4389
:1025A00035D000290ADA009A019B121BAB41009238
:1025B0000193002B0ADB039B994685E700F068FA3C
:1025C00024184D4100940195002DF4DA0123134C99
:1025D0005B4200930194EEE753465B005344033B98
:1025E000D3189C70D119D25D002A00D05A7053467E
:1025F0000B706C73307D009A019B00F0A9FA814644
:102600000028A7D02100306800F01EFDA2E70020BE
:10261000B4E701204042B1E7FFFFFF0FFFFFFF7F5C
:10262000F0B557464546DE464E46E0B50400170075
:1026300083B098464268EFF3108A72B61368002B95
:10264000FCD0BFF35F8F2668B57B002D3FD06B00B9
:102650005B19033B9C463268019362445378AB4656
:10266000B373002B00D1F373A168354B8C46414600
:10267000EB181B01634459600C991F6099600D9918
:10268000D9600023937053701370737B9946002BAD
:1026900048D02A001900B06873689847326800284B
:1026A00032D04B4648465B004B44033BD1188C4626
:1026B000019951188870D35C002B00D04B70634691
:1026C0001D704B46002073734D4531D12BE0002324
:1026D00000269B4600206368BFF35F8F00221A60CC
:1026E0008AF31088002D28D0002809D15B463002DB
:1026F000184303B0F0BCBB46B246A946A046F0BDA5
:10270000207D00F0ADFAF1E74B465B004B44033B04
:102710000198D3189D701118125C002A00D05A70CD
:102720004B460B7075733A004346207D00F010FA5B
:10273000E3685B19013B1E78CDE701204042D8E7F2
:10274000FFFFFF0F70B50400002933D04268EFF39C
:10275000108572B61368002BFCD0BFF35F8F206822
:10276000CEB2437BB34216D0FF230B405A00D3189E
:10277000026894466344033B9B78002B0BD122698B
:10278000914219D000206368BFF35F8F00221A6066
:1027900085F3108870BDFF230A0A0B40E168D2B2AE
:1027A0008C466344013B19789142EBD1310000F033
:1027B0004BFCE8E70020EDE72361E3E7407D70474D
:1027C000F0B504000D0006267642F717C646361906
:1027D0006F4100B584B08F4214D811D000F058F981
:1027E00032003B00121A8B41002B15DC002B3ED02F
:1027F0002000290000F056F904B080BCB846F0BDB6
:102800008642EBD90026002700F042F932003B0057
:10281000121A8B41002BE9DD002302930193154B23
:102820003200009314483B00FFF73EFE0028DFDB38
:1028300000239846BC46114A114F7B6A9C4504D838
:10284000B96A8E42D4D99C45D2D11168EFF3108079
:1028500072B60B68002BFCD0BFF35F8F1368BFF319
:102860005F8F4146196080F3108820BFE5E7002A9A
:10287000BED0D1E791200010AC110020F8E100207B
:102880000040054070B5060000F002F9FA2204008D
:102890000D00002330000021920013F0E1FB00192D
:1028A0006941002902DBFFF78BFF70BD0120014960
:1028B0004042F8E7FFFFFF7FF0B5EFF30583CE4618
:1028C000474680B505000C0085B0002B12D02C4A7D
:1028D0000020536A9C4203D8926A0130AA4204D372
:1028E00005B0C0BCB946B046F0BDE01A421E9041EA
:1028F000C0B2F5E7234E02930193234B02000093ED
:1029000030000B00FFF7D0FD031EE0DD20BF716833
:10291000EFF3108772B60A68002AFCD0BFF35F8F0E
:10292000DAB294463068427B62451DD0FF221A40DD
:10293000510089460168914488464946414403391B
:102940008978002913D0F1681B0A88464244013A6D
:102950001278DBB29A420FD07368BFF35F8F002208
:102960001A6087F31088B2E7FF221A40EBE732695A
:102970009342F1D13161EFE7614600F065FBEBE78F
:1029800000400540AC11002091200010F0B5EFF39D
:102990000582D6464F4646461000C0B51038EFF3C4
:1029A000108872B6214C2368002BFCD0BFF35F8FD8
:1029B0000123190081401E4D1F006963AA461D4D69
:1029C00029601D4D2E78AC463500C5402F402B4266
:1029D00009D1BFF35F8F276088F31088E0BCBA4647
:1029E000B146A846F0BD5346144D5F6A83005D5959
:1029F000AF420ED3124A8E439B5862461670BFF305
:102A00005F8F0022226088F31088002BE6D0984761
:102A1000E4E70C4B92009C46624413681360BFF3DA
:102A20005F8F0023236088F31088D7E7280100D048
:102A3000004005403C7005408CE2002014E200207C
:102A4000FC210020D03F054010B50100024A034898
:102A5000FEF7D6FC10BDC046789501107BE2002041
:102A600010B501000148FEF73BFD10BD7BE20020E0
:102A700000B5054B83B001000093002203230348F7
:102A8000FEF7E0FC03B000BD9C9501107BE2002046
:102A9000034B596A0A00986A596A8A42FAD1704708
:102AA00000400540064A536A9942FCD807D1044BBE
:102AB00002E05A6A914202D19A6A8242F9D370477F
:102AC0000040054070B504000D00EFF3108672B6AB
:102AD0001A4A1368002BFCD0BFF35F8F002D1BD068
:102AE0002000FEF7D1FF164981420AD02000FEF7F0
:102AF000D3FF01212000FEF797FF0123A340114AD5
:102B00001360114BA400E550BFF35F8F00220B4B05
:102B10001A6086F3108870BD0B4BA200D5500122BD
:102B2000A2400A4920000B7893430B700449FFF739
:102B3000D1F800212000FEF777FFE5E7280100D05B
:102B40008D29001038600540FC2100208CE2002017
:102B5000F0B54F46D6464646C0B507002C4C616AD4
:102B60000D00A66A616AA942FAD18B4208D805D045
:102B70000120E0BCBA46B146A846F0BDB242F7D942
:102B8000EFF3108A72B6234801680029FCD0BFF326
:102B90005F8F0125BD4020491D4C88460978894634
:102BA0002943C9B28C46414660460870391D1B480E
:102BB000890065630A51B9000B50216A002029423F
:102BC00019D0616A0800A66A616A8142FAD18B4213
:102BD00019D801D1B24216D8CC4516D00C4B1F20C3
:102BE0001D625D6301230740BB400D4A1E38136020
:102BF00043464A461A70BFF35F8F0022054B1A60A6
:102C00008AF31088B5E70020F5E70120F3E7C04616
:102C100000400540280100D08CE2002014E2002092
:102C200080E200E0EFF3108C72B60A490B68002BCB
:102C3000FCD0BFF35F8F01238340074A074813622C
:102C400002789A430270BFF35F8F00230B608CF30E
:102C500010887047280100D0004005408CE2002019
:102C6000EFF3108C72B60A490B68002BFCD0BFF34F
:102C70005F8F01238340074802781A430270BFF335
:102C80005F8F00220A608CF31088034A136070473C
:102C9000280100D08CE200203C60054070B50500A2
:102CA00014001600002915D00C00002A12D08068EC
:102CB0006B689847296800280ED073009B19620042
:102CC000033B1219CB18033A9C7088188A5C002ABF
:102CD00015D10670200070BD63001B197200033B04
:102CE0009219CB18033A9E7088188A5C002A02D188
:102CF00004703400EEE75A7004703400EAE75A704A
:102D00000670E7E7F0B5C6460600884600B5102114
:102D10000120170013F05CFA03210500300013F0C6
:102D200057FA43466B600023F4B26B73013328609B
:102D30002C73AF60AB73EC73012C06D9421C0133CA
:102D4000DBB2137003329C42F9D1FF231E407300A3
:102D50009E190023801903384370280080BCB846B0
:102D6000F0BDC04630B583600023CCB2437301335D
:102D7000047342608373C4730D000068012C06D98C
:102D8000421C0133DBB2137003329C42F9D1FF21A4
:102D900029404B005918002340180338437030BDB8
:102DA00010B50400006813F033FA200013F030FA75
:102DB00010BDC046F8B5CE46474606000C0080B5AB
:102DC000002907D04D0003686D18033D5A19577844
:102DD000002F04D12000C0BCB946B046F8BD790030
:102DE000C9190339884643445978894600215970E6
:102DF000517073683A002100806898473368002852
:102E000014D042469A18947059195B5D002B00D07B
:102E100053700F70270049463000FFF7CBFF390091
:102E200002003000FFF73AFF0400D3E74246414674
:102E30005D19AF709A185B5C002B00D06B7014703A
:102E4000E9E7C046F0B557464546DE464E46E0B592
:102E50000D006B0001685B19DF1E0400C85D83B0C4
:102E60000192CA19002850D043001B18033BCB180D
:102E70005E78B446002E1AD1019E002E42D0E67B29
:102E8000002E04D073009B19CB18033B5D70A37B0D
:102E9000002B00D1A573E57300282FD100235370B8
:102EA00003B0F0BCBB46B246A946A046F0BD7200D6
:102EB0006244033A89184A78904600224A70914643
:102EC0005A70010032002000FFF7E8FE43468246B8
:102ED000002B07D05B0021684344033BCB185A7892
:102EE000002A16D1424651462000FFF7D7FE21683E
:102EF000019BCA19002BC2D10028CFD043001B1858
:102F0000033BCB1800219970C8E7019B002BB6D179
:102F1000C4E75000801803380918487883464846AB
:102F20004870587041462000FFF7B8FE5946804669
:102F30002000FFF73FFF414602002000FFF7AEFEF2
:102F40008046CFE7F0B557464546DE464E46E0B5EB
:102F500083B00191457B04006B0000685B19DF1EA4
:102F6000C15DC219002952D04B005B18033BC31846
:102F70005E78B446002E1CD1019E002E44D0E67B24
:102F8000002E04D073009B19C318033B5D70A37B14
:102F9000002B00D1A573E573002931D1002328004F
:102FA0005370617303B0F0BCBB46B246A946A0465D
:102FB000F0BD72006244033A8018427890460022C5
:102FC000427091465A7020003200FFF767FE434678
:102FD0008246002B07D05B0021684344033BCB189B
:102FE0005A78002A17D1424651462000FFF756FE74
:102FF000019B01002068C219002BC0D10029CDD04F
:103000004B005B18033BC31800209870C6E7019B78
:10301000002BB4D1C2E75000801803380918487853
:10302000834648464870587041462000FFF736FEF8
:10303000594680462000FFF7BDFE414602002000B1
:10304000FFF72CFE8046CEE770B5040000292CD097
:10305000437B8B422ED0056848004018033828185F
:103060008278002A21D053009B18033BEA5CEE18BB
:103070008A4202D11BE0002A08D053009B18033B70
:10308000EB185A788A42F6D142785A70002301220E
:10309000837043702000FFF7D5FE617B02002000A3
:1030A000FFF7FCFD6073012000E0002070BD437855
:1030B0003370EBE701221900FFF7C4FE60730120B3
:1030C000F4E7C046F8B5040021481D0017000E00C3
:1030D00012F046FC0100380012F042FC069B290465
:1030E0001B0319432368002B20DB1A4B1A4DE218EF
:1030F00053425A4180235B019C461203174B6244A2
:103100001A60174B1A601700AB689F43FBD1C022AF
:10311000231D92011A4321232660A06013602368B7
:10312000002BFCDA0823E1601360F8BD3F2322681E
:103130001340B342D9D1A3681B051B0D8342D4D1E0
:10314000EE22E368D20213408B42CED1EDE7C046B7
:10315000001BB7000040FDBF00C0004000E0004081
:1031600000F000408023024A9B000343D362704773
:103170000080054010B5140080221B4BD2051A6058
:1031800000281AD00123194A1843194BDA61194A49
:1031900042401A62596298628022134BD2051A602B
:1031A0001549164A1160E022D2041A60002C07D19A
:1031B0008022134B12061A6010BD0D4BD861EBE74D
:1031C00063011B1B9A008023121912015B049A42AF
:1031D00000D30C4A0C4B1A60054B5A608022084BF6
:1031E000D2051A60E8E7C04600B00540D3C007B07A
:1031F000008005402D3FF84FFCFF010008200140F2
:1032000000A00540FFFFFF0070370020AA23064AF8
:103210001B0113602F230549D360054B19605368C8
:10322000002BFCDA7047C0460040024000B0FA00B4
:103230000060024010B501F0BBFB00F01FFB00F086
:10324000E3FC00F08DFD06F0ADF801F041FC00F06C
:1032500057F906F017F810BD40BA80B27047C04663
:1032600000BA7047F8B54746CE4680B5070104005E
:103270003818000110308146404D414E2B68884679
:10328000B144002B02D02A7AA24258D0EB68002B1E
:1032900002D02A7DA2424BD0AB69002B03D0202262
:1032A000AA5CA2423DD06B6A002B03D02C22AA5C00
:1032B000A2422FD03B191B01F318DB7B002C04D05A
:1032C000B27A022A41D0012C06D08D225200B25C83
:1032D000022A43D0022C05D02A4AB25C022A43D0EB
:1032E000032C03D0284AB25C022A42D0032B0DD80B
:1032F000264D9B00585906F043FB00223C1924013F
:103300003619F37B9B005A510423F373C0BCB946B2
:10331000B046F8BD41464846AA6A984700236B620A
:10332000C8E741464846EA6998470023AB61BAE7D7
:10333000414648462A6998470023EB60ACE7484677
:103340006A68984700232B60A0E7F27B9A42BAD1C3
:1033500004233C1924013619F373D7E72022FF32E6
:10336000B25C9A42B6D1F3E7094AB25C9A42B7D14D
:10337000EEE7084AB25C9A42B8D1E9E7B82E0020DD
:10338000F02E00202A0200003A030000A82E0020A0
:103390002F0200003F030000F0B5DE464E465746C0
:1033A00045468346E0B5030187B04F4A01935B442D
:1033B0001B01D618F27A012A00D992E04B499200FB
:1033C0008C58002C00D17FE010331D00464B9C46EA
:1033D0006544280015F014FDA022123081B292003D
:1033E000362000F0CDFE8146002866D003AC0C22CA
:1033F0000021200012F024FF3089FFF72DFF012368
:103400002080A3700C22FF3321004846A38001F0E6
:1034100075F9374B0C269A464F46013D6B1C984672
:103420006B78002445462E2B06D156E06B7801348C
:103430000135E4B22E2B01D0002BF7D14346EB1A15
:103440009BB299462300F318534542DC2200310019
:10345000380001F007FA731C4A469BB23419414602
:10346000380001F087F9A3B22A785E1CB6B2002AB0
:10347000D4D11C003100380001F0F4F91D4B0234A6
:103480000422029302A9A3B2380001F073F9164A8C
:10349000019B944615495B441B0163448C46DA7AD0
:1034A000DB7B15499B009200585862443523390054
:1034B00006F0F0F9380000F0C5FF07B0F0BCBB46DD
:1034C000B246A946A046F0BD0021FFF7CBFEB4727C
:1034D000F3E7380000F0B6FFEFE700220023914643
:1034E000B1E7064810F006FFF02E0020E82E00207D
:1034F000FEFF000000010001A82E0020B095011081
:103500007047C04682B0012801D902B070478000E0
:10351000002903D00A68044BC250F6E7034A024B65
:1035200012680192C250F0E7E82E002048B0011066
:10353000F0B546464F46D646464BC0B5464E8D275B
:103540003400002598467F00A37A022B35D02CD872
:10355000002B1FD0414B9946414B9A46FDF732FE56
:10356000B37A80B2022B40D0F35D022B43D04B469E
:10357000F35C022B48D05346F35C022B4DD0022360
:103580000122A37200232081E37228002273637357
:10359000FFF702FF01351134EDB2FF34042DD3D112
:1035A000E0BCBA46B146A846F0BD032B4ED1236815
:1035B000002B13D10023A372ECE7237B013BDBB28A
:1035C0002373002BE6D1637B0133DBB26373042BDF
:1035D00029D023732800FFF7DFFEDBE7013B2360E0
:1035E000002BD7D10023A372D4E733898342B5D00F
:1035F000F35D022BBBD11733FF33F35A8342ADD0B7
:103600004B46F35C022BB6D18A239B00F35A8342CC
:10361000A4D05346F35C022BB1D1CE239B00F35AC6
:103620008342ACD19AE7E37A002B08D14246526834
:10363000002A04D001226373E2722273CAE70021D8
:103640002800FFF70FFE0023A372A3E7054810F040
:1036500051FEC046E82E0020F02E00202A02000075
:103660003A030000E4950110F0B583B06B469C1D51
:103670000023238001331E000640184205D0002994
:1036800003DD037801396370013003221300034026
:10369000104205D00023012938DD038802390230A9
:1036A00007294BDD083907220F0097430200050068
:1036B0000832BF182A689A189A429B415B42D21876
:1036C0006B680835D3189342924152429B18AF421F
:1036D000F0D1CA08551CD200ED00891A1A0440190D
:1036E000120C1B0C9B18012910DD02889B188A1EE6
:1036F000012A05DD45885B19052901DD81885B18F4
:1037000051084D1C6D0049004019511A012901D181
:10371000027822702288D218130C1204120C9B1803
:10372000180C1B041B0CC018002E04D00306000448
:103730001B0C000E184380B203B0F0BD1A00D0E796
:10374000F0B54F46D6464646C0B591461A68089B26
:103750008A46196804000B041B0C090C5B18110441
:10376000090C5918130C5B18180C1B041B0CC318FC
:10377000180C1B041F0CC719002C21D0FF23002696
:103780000125984661896068FFF76EFFC019030C38
:103790000004070CDF1963891D4207D042463B062F
:1037A000380A1B0C104003431F006E402468002C95
:1037B000E8D1002E04D03B063F041B0C3F0E1F43F4
:1037C000534698B2FFF748FD04004846FFF744FD12
:1037D0002018C019030C0004000C1818030C000476
:1037E000000C1818C04380B2E0BCBA46B146A846E7
:1037F000F0BDC04610B582B0049C0094FFF7A0FF56
:1038000002B010BD10B5FFF72FFFC04380B210BD4E
:10381000F0B5C646040000B500282AD0FF230026D4
:1038200000270125984661896068FFF71DFFC019D0
:10383000030C0004070CDF1963891D4207D04246C0
:103840003B06380A1B0C104003431F006E402468DF
:10385000002CE8D1002E09D03B0638041B0C000ECA
:103860001843C04380B280BCB846F0BDF84380B274
:10387000F9E70148F7E7C046FFFF000003220A4BC3
:10388000002103339343094A09481360FA221201C5
:1038900019719918016001201A6008710549995041
:1038A000054A13607047C04620D1002018D100207F
:1038B0001CD10020A00FA00F6C370020F0B5D64619
:1038C0004F464646C0B500285DD0830700D069E06A
:1038D0000300394A083B12689A4260D837490C30D5
:1038E000096881425BD31879002861D0FA201D88CD
:1038F000000185420CD85C88A246844208D8981AF8
:1039000080B280461619A04205D03088404502D0CA
:103910002B4810F0EFFC5019814202D044884445F6
:10392000F6D100241C71274CA44624689C4202D97D
:10393000644623601C00994237D9834213D007792B
:10394000002F10D181420ED0A04224D005881D80C6
:103950000188FA200001814205D040465118488074
:1039600059888A465618B3420DD0317900290AD1B8
:10397000A3420DD0FA2135801B8809018B4202D069
:10398000D31852465A80E0BCBA46B146A846F0BDAC
:1039900061460E60EEE761461C000B60D6E70A4800
:1039A00010F0A8FC094810F0A5FC094810F0A2FC92
:1039B000084810F09FFCC04618D100201CD1002000
:1039C0006C9601106C3700202896011004960110A7
:1039D000A096011044960110F0B5C6463B4BCA1C98
:1039E00000B513400B2B3FD9FA22120193423ED867
:1039F00099423CD8364A146884425ED8354A1268E7
:103A000082425AD90500083D291B8AB290462E8869
:103A100041463200083A521A92B29A4250D320D00C
:103A2000A7193979002924D1FA22120196424AD0E5
:103A30003A88294E9446424608329B1832689BB217
:103A4000BA4237D0E21861461180414600265180C3
:103A5000FA2116712B80128809018A4201D0A2181E
:103A6000538080BCB846F0BD0C239942C2D90020D7
:103A7000F7E71F001437BFB2BA42F2D3424608320A
:103A80009B18FA229BB2120196421CD0124FE218E8
:103A90003968914200D93A60414600275180FA21A5
:103AA000177116802B80128809018A42D9D0A41878
:103AB0006380D6E7E2183260C5E7084810F01AFCC8
:103AC000074810F017FC074810F014FCFCFF00003A
:103AD00018D100201CD100206C370020BC960110AA
:103AE000D4960110F4960110F0B5D6464F464646DE
:103AF000C0B500282FD03D4CC31C1C400B2C30D926
:103B0000FA231B019C4226D8A04224D8384BFA2223
:103B10009C461B6812019A46364B121B1E68534680
:103B20009B1B98B21B0490461B0C9A4213D9082782
:103B30007F4208E01588FB1A5B19A34213D22B00C1
:103B40002800434507D2F21811790029F2D01088D5
:103B500003004345F7D30020E0BCBA46B146A8466F
:103B6000F0BD0C24D0E71427B846A0444746BFB2A6
:103B7000BB421CD2012308341371A4B21E4B186837
:103B8000130092450ED0A418A0422CD31000083088
:103B90009307E1D0194810F0ADFB1B88F318197991
:103BA00000291AD09842F8D163461860EBE7FA274B
:103BB0000834A4B203193F019BB2B946BB420FD0EF
:103BC000F718397101213D8078801380117139888F
:103BD0004945D3D071184B80D0E761460B60D2E7DE
:103BE000074810F087FB074810F084FBFCFF00003B
:103BF0006C37002018D100201CD10020389701100C
:103C0000F49601100897011024230022F0B54746CE
:103C1000CE469046994603320425944680B5124F0D
:103C2000124B134CB94441463A6821606146033354
:103C30008B43002D0BD016880021002200E00300EA
:103C400001321960981919002360AA42F7DB043782
:103C5000B94504D03A68946853685588E3E7C0BC16
:103C6000B946B046F0BDC0462C980110ACC8002043
:103C7000D4D0002010B5082810D80B4B8000C458B1
:103C8000FCF7E0FEA3681C68002C03D022681A60D1
:103C9000A30705D1FCF7D8FE200010BD0024FBE7E8
:103CA000024810F027FBC0462C9801107C970110A9
:103CB00070B50C0008280ED800290CD0084B8000E5
:103CC000C5588B0708D1FCF7BDFEAB681A682260A7
:103CD0001C60FCF7B9FE70BD024810F00BFBC0463B
:103CE0002C980110A09701100C2040427047C0464C
:103CF00070B505000C00160082B000292AD0436878
:103D00000A689A4201D102B070BD3360300001A947
:103D1000019202F0FDF8300001A905F05DFE01A955
:103D2000300000F025FE392322686A60E95C343BEC
:103D30000B40052B05D0EB69002BE4D028009847F9
:103D4000E1E7002AF7D00B07F5D52800291D09F077
:103D5000D7FEF0E7014810F0CDFAC04650980110A8
:103D60007047C046F0B5C64600B504000E00170007
:103D7000984682B000286AD0099B002B67D00029A2
:103D800000D174E0002F00D16FE04346002B69D0D2
:103D90003F4B002563610022392320006560A56048
:103DA000E56025860021E2542830042212F048FA0A
:103DB000089BE56163623C232562364D2A78E25414
:103DC0000A9B23613368002B3AD13100200001AAFD
:103DD000FFF78EFF0122A168E0683B68994200D09E
:103DE000A36043461B68984200D0E360002A33D0AA
:103DF0002000099B9847002829D1274B3C2698464C
:103E00001F683C23E05C00239C46FF2802D16346E8
:103E10000020A355002F2CD0BC4236D03B00FF22FF
:103E200007E01B68002B24D09C422ED0013A002AC8
:103E30000AD0995D8142F4D10130C0B2A055E4E7C7
:103E4000002000210022C8E7144810F053FA002097
:103E500002B080BCB846F0BD3100200001AAFFF7D7
:103E600047FFC5E70E4B984692E70D4F8DE70C4E86
:103E700088E7FE2807D00130C0B24346287027608B
:103E800020001C60E4E70020F7E7064810F032FA53
:103E9000E93C001084E20020F4D000207498011066
:103EA00048B0011060980110F0B504000D00160034
:103EB0001F0083B000294ED0002E4AD0002F46D0DC
:103EC0002B680022002B0CD03368A1688B4200D0F5
:103ED000A3603B68E1688B4230D1002A31D003B047
:103EE000F0BD616801220029EED06846009101A969
:103EF000019302F00DF8684601A905F06DFD01A9D6
:103F0000684600F035FD39232A686260E15C343B85
:103F10000B40052B07D1002A05D00B0703D5200045
:103F2000211D09F0EDFDE369002B01D02000984729
:103F30003368A16801228B42CBD0C9E7E360002A35
:103F4000CDD16A4629002000FFF7D2FEC7E7034F14
:103F5000B6E7024EB2E7014DAEE7C04648B00110E9
:103F600070B5041E16D04368002B17D139220121E9
:103F7000A35C194224D11D4B1A68A2422ED01C4AC0
:103F80001368A34204D126E01A68A24203D01300AA
:103F9000002BF9D170BD22681A60FBE7051D0021D6
:103FA000280001F0B5FF0021280005F015FD0021D3
:103FB000280000F0DDFC39220121A35C1942DAD08F
:103FC00018008843A0541B070BD4E369002BD2D000
:103FD00020009847CFE723681360DBE700221A60D0
:103FE000CDE7200009F0EAF9EFE7C046F0D0002065
:103FF000F4D00020014B18607047C046F0D000207C
:1040000070B5041E15D03925435DDA0711D401229D
:104010001343DBB24355C269002A01D09047635D68
:1040200005221A40052A04D16268002A01D01B0724
:1040300000D470BD2000211D09F062FDF9E7C046E3
:1040400070B5041E03D03925435D5A0700D570BDF5
:1040500004221343435506F075FC0523625D1340AB
:10406000052B05D0236A002BF1D020009847EEE7FE
:104070006368002BF6D01307F4D52000211D09F04A
:104080003FFDEFE710B500280AD039220421835CF8
:10409000194205D08B438354036A002B00D0984704
:1040A00010BDC046021E0ED0084B1868002809D06B
:1040B0003C2102E00068002804D0435C0133DBB2FD
:1040C0009342F7D170470020FCE7C046F4D00020AF
:1040D000F8B505000026002826D00F270BE0012B9D
:1040E00024D0002B2AD12800FFF7E8FB0136F6B2D6
:1040F000002C19D02500FCF7A5FCAC7B002C1AD0B5
:10410000013CE4B2AC73FCF79FFC002C0CD12B7B80
:104110002C683B40022BE2D1290008200136FFF732
:10412000C7FDF6B2002CE5D13000F8BD290007200C
:10413000FFF7BEFDDAE7034810F0DCF8024810F0A4
:10414000D9F8C046A4980110BC98011010B5FCF72E
:1041500079FC0022084B1A70FCF776FC074B1868B4
:10416000002803D107E0C068002804D0436F002B6B
:10417000F9D001F01BFF10BD86E2002024E20020F0
:10418000F0B5C1234F464646D6468046C0B50D0021
:10419000170084B25B009A423FD008D81400433B1A
:1041A000FF3B9C43012C6AD03C4810F0A3F8A023AD
:1041B0009B009A42F8D1E31C0324CA1CA343A243E8
:1041C0009B189BB21800103080B293421ED38242DB
:1041D0001CD8FFF789FC061E19D000230360434654
:1041E000C71813372E4B2904A7430D43476085603A
:1041F000C3600CE0FCF726FC01222A4B1A70FCF786
:1042000023FC002E02D03000FFF762FF00263000B2
:10421000E0BCBA46B146A846F0BD00239846224B02
:1042200000269A4600230327994607E043466D1A65
:10423000ADB21860002DEAD0804600240820FFF7B8
:1042400019FD0028D6D05246E31CBB43D31A1A1CD2
:104250009BB2AB4200D92A1C4B46041903601334AD
:10426000124BBC4391B2446005814281C360002E71
:10427000DCD16D1AADB20600002DDDD1C7E70720F5
:10428000FFF7F8FC061EC2D0002329040D4303608B
:104290004360856007734373C481B8E7D098011009
:1042A0008000010086E20020EC0500008200010091
:1042B00070B5041E34D002898A421CD90D008A1AB6
:1042C00007E023896D1A9B1823812468ADB2002C66
:1042D00020D06189A942F4D3237B1B0701D1A942D5
:1042E0000AD1290420682943A160002801D0FFF7E2
:1042F000EFFE0023236070BD63682000191B69185E
:1043000089B2FFF769FB002807D08442E9D006484C
:104310000FF0F0FF05480FF0EDFF05480FF0EAFF42
:1043200004480FF0E7FFC0463899011004990110C6
:104330001C990110EC980110030070B5002820D0E2
:104340008022520291421AD2002916D002898CB2E0
:10435000A21892B2944212D8057B01207F2D0DD96C
:104360005D68691A1D001035A94207D35960598943
:10437000002064185C811A8100E0002070BD0120DB
:10438000FCE701480FF0B6FF5499011010B5002862
:1043900018D080235B02994212D200290ED04389A3
:1043A0008AB29A420CD844689B1AA4464381038976
:1043B00061449A1A41600281002010BD0020FCE790
:1043C0000120FAE701480FF095FFC046549901100B
:1043D00010B5002915DB00282FD0002923D0038930
:1043E0008AB2D3189BB29A4225D8047B7F2C1CD862
:1043F0004468611A4160418903815218428100205A
:1044000010BD002819D0494243898AB29A4212D875
:1044100044689B1AA4464381038961449A1A416007
:1044200002810020ECE70020EAE74468611A0400FA
:104430001034A142DED20120E2E701480FF05AFF1A
:104440005499011010B5002802D0FFF741FE10BDAD
:1044500001480FF04FFFC04654990110030000209F
:10446000002B04D01B68013080B2002BFAD17047BA
:1044700010B5041E09D0FCF7E5FAA37B0133A37342
:10448000FCF7E2FAA37B002B00D010BD01480FF02F
:1044900031FFC0466099011010B5002814D00029E2
:1044A00012D00368002B07D002890C8912190281EF
:1044B00018001B68002BF7D102894389934204D16D
:1044C0000A8901609B18038110BD01480FF012FF9B
:1044D0007499011010B50C0000281FD000291CD0C1
:1044E0000368002B07D00289218952180281180025
:1044F0001B68002BF7D102894389934214D122898A
:1045000004609B180381FCF79DFAA37B0133A3731E
:10451000FCF79AFAA37B002B03D010BD0029FCD036
:10452000F1E703480FF0E6FE02480FF0E3FEC04655
:104530006099011074990110F0B54F46D646464671
:104540008146C0B5884692461F00002900D184E00C
:104550000B89934200D280E0002800D17DE05346D1
:104560000289FB189A4200DA77E0002644890CE0C1
:1045700043465A891B899A423DD04B465C891B8928
:104580009C424DD05346002B57D043465B89E41BD9
:104590009B1B9C4200D91C005546A24500D9250012
:1045A0004B465B682A00D81943465B687F19991906
:1045B00011F04CFE534676195D1BABB29A464B4642
:1045C0005C89BC424CD343465B89B3424BD305D193
:1045D00043461B6800269846002B17D0BC42C7D123
:1045E0004B461B689946002B1FD043465A891B89AE
:1045F00000279A42C1D143461B68002BBDD006203C
:104600004042E0BCBA46B146A846F0BD5346002B36
:1046100023D1BC4219D04B461B899C420DD10026A8
:104620004B461B68002BADD0E9E75346002B14D155
:1046300043461A895B899A4201D00020E1E743464C
:104640001B68002BDBD10020DBE74B461B6899463B
:10465000002BF2D000275C89DDE710204042D0E734
:1046600002480FF047FE02480FF044FEA4990110E3
:10467000BC99011010B5002904D000230A89FFF766
:104680005BFF10BD10204042FBE7C046F0B5C646B8
:104690000500884616001900002700B5002828D01C
:1046A0004346002B25D0002A05D122E02D68091BA6
:1046B00089B2002D1DD06C89002901D0A142F5D20C
:1046C000641AA4B2321CA64200D9221C4346D8194F
:1046D0006B6894B29C46361B22006144E719B6B25F
:1046E00011F0B4FDBFB22D68002E02D00021002DC4
:1046F000E1D1380080BCB846F0BDC046F8B5CE4622
:10470000474605008846914680B5002824D00029F8
:1047100022D0038993421CD316000027002A02D11D
:1047200012E0002D1BD06C89B44200D934004346FE
:104730006868D919220011F089FD361B2D683F19D0
:10474000002EEED1B9450DD10020C0BCB946B0460F
:10475000F8BD01204042F8E710204042F5E7034849
:104760000FF0C8FD02480FF0C5FDC046D8990110F2
:10477000F0990110F0B5D6464F46464604008A46E9
:10478000C0B5002805D13AE024685B1B9BB2002C21
:1047900035D065899D42F7D921899F18B9422EDB12
:1047A000E91A8A4232DD8AB2904662685146D018D0
:1047B0007D1B424611F04AFDABB29946002B1CD03E
:1047C0002568002D29D02B894B4518D34F4600264C
:1047D00001E0002D24D06C89BC4200D93C00434646
:1047E000F11868682200514411F030FD3F1B2D681C
:1047F0003619002FEDD1B14515D1002001E001207F
:104800004042E0BCBA46B146A846F0BD6068514699
:10481000C01811F01BFD0020F3E710204042F0E724
:1048200002480FF067FD02480FF064FDD8990110AF
:10483000F09901100B0070B5150011891A00FFF7EF
:104840009FFC041E06D0002329002A89FFF774FE6E
:10485000002801D1200070BD01480FF04BFDC0467B
:10486000089A011005E043898B4205D8C91A0068EF
:1048700089B20028F7D1704743685A54FBE7C04615
:10488000F0B5DE46454657464E468146E0B5344FC4
:1048900083B0396878690AF0A1FA4B465A68314BFF
:1048A00080461C689B460020557A002C3AD0002692
:1048B000844604E0E3682600002B32D01C00237CF1
:1048C000AB42F7D1217A002906D03C237868C35C3B
:1048D0000133DBB29942EDD14346002B29D0236846
:1048E000002BE7D10121637C194203D06368396949
:1048F0008B42DFD163699A46002BDBD00192210005
:104900004A46194BA069D047002819D14B465A682E
:10491000019B9A4221D102239C46E3682600002B8A
:10492000CCD1604603B0F0BCBB46B246A946A04617
:10493000F0BD2368002BD5D079698B42BAD1D1E77D
:10494000002E08D0E3680120F3605B461B68E3603B
:104950005B461C60E6E70120E4E704480FF0CAFC70
:1049600050370020DCE00020603700201C9A011046
:1049700010B5002811D00268002A0ED000290CD0F2
:104980000B68002B09D0094B1B68002B05D01C6855
:10499000944203D0DB68002BF9D110BD0A681A607D
:1049A000DB68002BF9D00268F1E7C046DCE00020AC
:1049B0007047C04610B5041E23D0037D042B05D0DC
:1049C000072B0FD00020032B00D010BD200003F0D8
:1049D00021FD00280AD105232375200004F046F8A4
:1049E0000020F2E703F016FD002807D0431CECD1AD
:1049F0000822638B002013436383E6E709232375B2
:104A0000EBE701480FF076FC689A011070B50600DC
:104A1000806F002803D0FFF715FD0023B367746F84
:104A2000002C18D06068256800280CD0FFF70AFD1C
:104A300021000420FFF73CF9002D0AD02C0060680B
:104A400025680028F2D121000420FFF731F9002D5C
:104A5000F4D1002373670123F46E5B423386002C8C
:104A600016D06068256800280CD0FFF7EBFC210009
:104A70000420FFF71DF9002D0AD02C00606825687E
:104A80000028F2D121000420FFF712F9002DF4D103
:104A9000346F002C16D06068256800280CD0FFF712
:104AA000D1FC21000420FFF703F9002D0AD02C00CF
:104AB000606825680028F2D121000420FFF7F8F88B
:104AC000002DF4D100236822F3663367B35270BD22
:104AD00010B5FCF777FB044B80049C46800C034B1D
:104AE0006044188010BDC04600C0FFFFD8110020F0
:104AF00010B5037D0100012B03D00220FFF7D8F889
:104B000010BD01480FF0F6FB749A0110F8B5CE46BF
:104B1000474680B5002963D0002866D0037D002B6E
:104B200060D1002A2BD0324E3700103733681B6813
:104B3000002B03D113E0DB68002B10D0DC8A9442F9
:104B4000F9D11C68002C04D00D68002D01D0AC42B6
:104B5000F1D108204042C0BCB946B046F8BD043689
:104B6000BE42E3D10B68002B00D00360214BC28210
:104B70001A681860C26004F065FB0020EBE71E4B6A
:104B8000802698461A881D4B194F9C46102399463B
:104B9000F601B944013292B2624514D03D002B684F
:104BA0001B68002B03D111E0DB68002B0ED0DC8AE0
:104BB0009442F9D1013EB6B2002EEBD14346022019
:104BC0001A804042C7E7C0221202E7E704354D458C
:104BD000E5D143461A80002AC4D102204042BAE7F8
:104BE000074999E706204042B5E710204042B2E766
:104BF000F49E011028E20020D8110020FFFF0000E1
:104C000048B0011070B5041E33D0037D002B30D1A5
:104C10000320FFF72FF8051E2BD001222369036123
:104C2000E38A0275C382627D4275A268826022684F
:104C30000260002B0CD0154A13689C4204D11FE07F
:104C4000DA68944217D01300002BF9D10023E360F7
:104C5000237D012B17D021000220FFF729F80C4BF0
:104C6000AB610C4B1A681D60EA6004F0EBFA280097
:104C700070BD0025FBE7E268DA600023E360E7E748
:104C8000E3681360E2E704480FF034FB28E20020F9
:104C90001556001030E20020749A0110F8B5031E7A
:104CA0001FD0078DC16A456A5C8E114E781A401973
:104CB000221CB4420BD892B2821A0CD5491B0CD4D8
:104CC0008022520291420FD200205985F8BD321C39
:104CD00092B2821AF2D45F85F8E7002200205A854A
:104CE000F4E704480FF006FB03480FF003FBC0464F
:104CF000D0160000889A0110AC9A0110F8B500286F
:104D00001DD0037D012B34D0028D1D4B511889B26B
:104D100099421BD91900466A458E1A4FC46A01850B
:104D2000F3182A1CBD420BD892B212199A1A11D547
:104D3000A41B1BD48022520294421DD24485F8BD8C
:104D40003A1C92B212199A1AF2D403E08A42E1D8BC
:104D50000B00E0E70C4A41851B1B9342EFD902226E
:104D6000438B1343438303F081FEE8E7002343852D
:104D7000E5E706480FF0BEFA05480FF0BBFAC0465B
:104D8000A02D0000D0160000670B0000C89A01108B
:104D9000AC9A0110F0B5DE46454657464E46E0B5A2
:104DA000BF4DC04A2B6887B001332B60BD4B1B78C9
:104DB00001331370BC4B9B465B461C68002C00D132
:104DC000CCE000230593237D002B00D112E2012BC0
:104DD00000D115E20A2B00D10FE2B24AA17F12786E
:104DE000914200D158E1A2774222A25C022B00D16D
:104DF000FDE00B2A00D9F7E0A122A65C002E00D12D
:104E00005AE1226F002A00D012E2E26E002A00D19D
:104E10000BE2A222A25C0B2A00D9E5E0A020A34A63
:104E20009619013E3178225C8A4200D28DE16023DE
:104E3000E15A002900D0B9E0200004F021F900284F
:104E400000D0BFE0A0230022E254A132A35C062BD5
:104E500000D9B7E0012700260133A354237D062B98
:104E600000D1B5E008210800627A10408046114266
:104E700027D0042B00D05EE12B68226AFA219B1A0E
:104E800099469423E35849009A469823E358984654
:104E90009C23E05843465843504410F061FD81453F
:104EA00000D93EE1A3274346E05DFA2143431800C1
:104EB0004900504410F054FD00239846814500D924
:104EC0004AE1676F002F0AD02B68226A9A1A4023A2
:104ED000E15E4B005B185B009A4200D305E1237D45
:104EE000032B00D18AE0092B00D0AEE02B68226AA8
:104EF0009B1AF02B00D887E09023E6582000FFF79C
:104F000085FD059B002B00D1ADE05B461B68A342ED
:104F100000D17EE1059BE268DA604346002B00D0B9
:104F2000ADE023699946E3689846237D012B00D1C3
:104F30006CE121000220FEF7BBFE00235C4C2370D5
:104F4000002E07D00D2148464942B0472378002B58
:104F500000D031E74446002C00D034E7554F002400
:104F60003968002904D11AE00C00C968002916D05C
:104F70000B7D0A2B00D046E12B680A6A9B1AF02BA6
:104F8000F2D9002C00D1DAE03B688B4200D143E13A
:104F9000CE68E6600220FEF78BFE311EE8D107B036
:104FA000F0BCBB46B246A946A046F0BD200003F0C7
:104FB0004FF9002800D045E7200003F057FD0028F6
:104FC00000D03FE7237D01270026062B00D049E7CC
:104FD000638BDB0605D52B68226A9B1A282B00D928
:104FE0003E00002398466CE70227012637E7052A92
:104FF00000D801E700230126984662E72B68226A61
:105000009B1A282B00D977E7002E00D074E7237F66
:10501000627F0133DBB2E66823779A4212D800231D
:10502000234A237713708C33E358002B00D17CE0A4
:105030002100206998471E4B1B78002B00D0BBE64F
:10504000002872D00594340085E7002EDFD090222E
:10505000A658012B00D854E70A2B00D04EE7059B39
:10506000002B00D051E75B461B68A34200D0D9E07B
:105070005B46E2681A604346002B00D151E7238B60
:10508000626A216D0293E38A20000193231D00933D
:10509000230003F0B5FB44E70594E4685BE7C046F2
:1050A00034E200208BE2002024E20020049F011063
:1050B00089E2002038E200203022A15E5E48228E84
:1050C000824202D8013211B221864022A25E01271B
:1050D0008A4200DDC3E6200003F0C4FA002848D06D
:1050E000236F002B42D0237DB9E67868A1463C6847
:1050F00000280CD0FFF7A6F939000420FEF7D8FDF0
:10510000002C0AD0270078683C680028F2D13900CA
:105110000420FEF7CDFD002CF4D14C46002363673C
:10512000DDE601233E009846CBE6200003F09EFC1E
:10513000059434000FE7072B00D19DE651E73B684B
:105140008B426CD1CE683E6024E70132D2B2225449
:105150008A4200D237E76AE6200003F021FF0028E8
:1051600000D0AEE6E35D0133E355AAE6E36E002B23
:10517000B9D0237D022B13D03C22A35E3E21625E78
:10518000DB109B184222A15C0A1C0C2929D82B4950
:10519000D2B28A5C9340284A934220DC4022A35238
:1051A0000023482123866033E25A605A131C82424E
:1051B00000D9031C4A209BB25B082352618E4A002F
:1051C00092B2934200D2225248230022E15222336B
:1051D000E252200003F080FE0127237D3FE6184BBA
:1051E000DCE70C221549D2B28A5C9340124A934202
:1051F000D4DDF4E713480FF07DF813480FF07AF888
:1052000012480FF077F812480FF074F811480FF0B9
:1052100071F811480FF06EF810480FF06BF8104855
:105220000FF068F80F480FF065F80F480FF062F8BC
:105230000E480FF05FF8C046FE7F0000E49E0110AC
:10524000FF7F0000F09A0110489B01101C9B011089
:10525000389C0110749A0110E09B0110689C0110A9
:10526000909C01100C9C0110A89B0110749B0110D4
:1052700070B5041E16D06068256800280CD0FFF7B2
:10528000E1F821000420FEF713FD002D0AD02C00C8
:10529000606825680028F2D121000420FEF708FD8F
:1052A000002DF4D170BDC04610B5041E08D0406872
:1052B000002801D0FFF7C6F821000420FEF7F8FC13
:1052C00010BDC04670B5051E0DD00420FEF7D2FCFF
:1052D000041E06D01022290010F0B8FF6068FFF706
:1052E000C7F8200070BD01480FF004F8B89C011009
:1052F000002800D00161704710B5002804D0037D5C
:10530000012B02D08423C15010BD01480EF0F2FFE2
:10531000D49C011010B5002804D0037D012B02D0CD
:105320008023C15010BD01480EF0E4FFFC9C011029
:1053300010B5002804D0037D012B02D09023C1506A
:1053400010BD01480EF0D6FF249D0110002802D0A8
:10535000037D012B00D070478161FCE710B5002868
:1053600005D0037D012B03D08C23C150427710BDA3
:1053700001480EF0BFFFC0464C9D011010B500283B
:1053800006D0037D012B03D90A2B01D0FFF73EFB8A
:1053900010BDC04610B50C1E47D0002848D0036889
:1053A0008B4204D12FE0DA68A24224D01300002BF4
:1053B000F9D10023E360237D002B0FD1638BDA0743
:1053C00029D4E36E002B36D1236F002B36D1636FC7
:1053D000002B36D100232375E38210BD0A2BF0D0B9
:1053E000012BF7D02000FFF711FB237D0A2BE8D01B
:1053F000012BEFD0E2E7E268DA600023E360237D6F
:10540000002BEBD1DAE7CB6803600023E360237D58
:10541000002BE3D1D2E7022213436383200003F081
:1054200025FB237D012BD5D0CBE707480EF062FF8B
:1054300006480EF05FFF06480EF05CFF05480EF0D0
:1054400059FF05480EF056FF6C9D0110889D011014
:10545000A89D0110C09D0110DC9D0110F0B54E46C5
:105460004546DE465746E0B505000E0087B00028E9
:1054700067D0037D012B00D1B3E00A2B00D1A1E05E
:10548000026D9246426A05929022825893460269C2
:105490009146002B63D1C38A00269846002B67D023
:1054A000534A1368834257D1C368136000232C6F9B
:1054B00098460026EB60002C5DD1EC6E002C16D0D7
:1054C0006068276800280CD0FEF7BCFF210004208C
:1054D000FEF7EEFB002F0AD03C006068276800282A
:1054E000F2D121000420FEF7E3FB002FF4D16C6F12
:1054F000002C16D06068276800280CD0FEF7A2FFA9
:1055000021000420FEF7D4FB002F0AD03C00606885
:1055100027680028F2D121000420FEF7C9FB002FE4
:10552000F4D1002E41D12B7D012B5DD0290002202A
:10553000FEF7BEFB5B46002B03D00D2148464942D7
:10554000D84707B0F0BCBB46B246A946A046F0BD5E
:10555000DA68AA4242D01300002BF9D1A6E7C38A29
:10556000010024489846FFF715FF0122224B1A70CC
:105570002C6F002CA1D06068276800280CD0FEF7A3
:1055800061FF21000420FEF793FB002F95D03C0023
:10559000606827680028F2D121000420FEF788FB0C
:1055A000002F00D189E73C00F2E72B8B5146029394
:1055B000434601932B1D009328002B00059A03F00E
:1055C0001FF9B0E701000D48FFF7E4FE2B7D012B2A
:1055D0000AD029000220FEF76BFBB2E7EA68DA6026
:1055E00064E707480EF086FE06480EF083FEC046CC
:1055F00028E2002024E2002089E2002038E2002096
:10560000F49D0110749A011010B50121FFF726FFD7
:1056100010BDC046080010B5002905D00121FFF7D4
:105620001DFF0D20404210BD01480EF063FEC04634
:10563000289E0110F0B5C646050000B50220FEF711
:1056400019FB041E2AD0A4220021200010F0F8FD2E
:105650006423604A6575E2525F4B4022A362FF23D8
:10566000E372F93BA352E3875C4B5D4A23635D4BD6
:105670001B6823625C4B1B78A3775C4BA364842379
:10568000E2505B4A1033E2505A4A0433E250092296
:105690000433E250200080BCB846F0BD0827564EC7
:1056A0003468002C0AD02000438BE4681F42F8D0F5
:1056B000BB434383FFF77EF9002CF4D14F4B1868AE
:1056C000002812D0474B1C68036AE11AC368002BFC
:1056D00008D01A6AA21A914201D811001800DB689A
:1056E000002BF6D10121FFF7B9FE0220FEF7C2FA26
:1056F000041EA8D13368002B16D03A4A0021106846
:1057000002E0DB68002B09D01A7D092AF9D11A6A58
:10571000821A9142F5D811001C00F2E7002C03D048
:1057200000212000FFF79AFE0220FEF7A3FA041ED4
:1057300000D088E73368002B16D02A4A0021106871
:1057400002E0DB68002B09D01A7D082AF9D11A6A19
:10575000821A8A42F5D311001C00F2E7002C03D014
:1057600000212000FFF77AFE0220FEF783FA041ED4
:1057700000D068E76BB2002B2ADB002D21D02A0075
:105780003368013AD2B2002B1BD016490F680021B2
:10579000884607E0186A3A1A90461C000A00DB683F
:1057A000002B08D0597D8A42F4D8F8D1186A3E1AE5
:1057B0004645F4D3EFE7002C03D001212000FFF78A
:1057C0004DFE0220FEF756FA041E00D162E73AE7CA
:1057D0007F22D5E7A02D0000A02DA02DFFFF1802ED
:1057E000395B001034E200208BE200200100A02D84
:1057F00000DD6D00F824010024E2002038E20020E2
:10580000F8B50220FEF736FA041E28D0A4220021A3
:10581000200010F015FD4022642359496275E152C1
:10582000584BA362FF23E372F93BA352E387564B25
:10583000564A2363564B1B682362564B1B78A3774B
:10584000554BA3648423E250544A1033E250544A27
:105850000433E25009220433E2502000F8BD082648
:10586000504D2C68002C0AD02000438BE4681E4267
:10587000F8D0B3434383FFF79DF8002CF4D14A4B93
:105880001868002812D0424B1C68036AE11AC368EA
:10589000002B08D01A6AA21A914201D811001800F0
:1058A000DB68002BF6D10121FFF7D8FD0220FEF7BF
:1058B000E1F9041EAAD12B68002B16D0344A00212E
:1058C000106802E0DB68002B09D01A7D092AF9D1A3
:1058D0001A6A821A9142F5D811001C00F2E7002CD6
:1058E00003D000212000FFF7B9FD0220FEF7C2F926
:1058F000041E00D08AE72B68002B16D0244A002112
:10590000106802E0DB68002B09D01A7D082AF9D163
:105910001A6A821A9142F5D811001C00F2E7002C95
:1059200003D000212000FFF799FD0220FEF7A2F925
:10593000041E00D06AE72B68002B1AD0144A0025F9
:105940003F21166806E0186A11001C00351ADB6852
:10595000002B08D05A7D9142F5D8F8D1186A371A31
:10596000AF42F4D3F0E7002C03D001212000FFF771
:1059700075FD0220FEF77EF9041E00D16DE745E7B4
:10598000A02D0000A02DA02DFFFF1802395B0010F4
:1059900034E200208BE200200100A02D00DD6D002C
:1059A000F824010024E2002038E2002030B5040091
:1059B00085B0002800D19FE0037D002903D0042B8F
:1059C0000DD0072B0BD0012B00D169E0022B4ED05C
:1059D000002B3BD02000FEF7EDFF05B030BDA26FDD
:1059E000002A54D0638BDB0600D488E0238B200090
:1059F0000293E38A626A0193231D0093216D2300C1
:105A000002F0FEFE237D012B04D90A2B02D02000D8
:105A1000FEF7FCFF3D4A1368A34214D1E36813600C
:105A200000230122E3603A4B1A703A4B1B68A342F1
:105A300032D0237D012B24D137480EF05BFCDA688D
:105A4000A24250D01300002BF9D1E9E7E38A002BE2
:105A500017D0324A1368A34204D14AE0DA68A2425E
:105A600044D01300002BF9D10023E36009E02100AA
:105A70002648FFF78FFC0122254B1A70237D012B4E
:105A8000DAD002202100FEF713F90020A5E7244A0E
:105A9000218D9142A6D196E702F046F800209CE7BE
:105AA000204A002110000C3053681B68002B05D0E1
:105AB000DD6FAC4212D0DB68002BF9D1043290428A
:105AC000F2D121001848FFF765FC237D012B19D086
:105AD00003202100FEF7ECF800207EE7D967DB68A1
